:020000040800F2
:1000000000500020B5230008F9230008F923000858
:10001000F9230008F9230008F92300080000000074
:10002000000000000000000000000000F9230008AC
:10003000F923000800000000F9230008551F0008FC
:10004000F9230008F9230008F9230008F923000820
:10005000F9230008F9230008F9230008F923000810
:10006000F9230008F9230008F9230008F923000800
:10007000F9230008F9230008B71D0008F923000838
:10008000F9230008F9230008F9230008F9230008E0
:10009000F9230008F9230008F9230008F9230008D0
:1000A000F9230008F9230008F9230008F9230008C0
:1000B000F9230008F9230008F9230008F9230008B0
:1000C000F9230008F9230008F9230008F9230008A0
:1000D000F9230008B51D0008F9230008F9230008DA
:1000E000F9230008F9230008F923000800000000A4
:1000F0000000000000000000000000000000000000
:0C01000000000000000000005FF808F1A3
:10010C004FEA4102B2F1E04324BFB3F5001CDCF12D
:10011C00FE5C0DD901F0004C4FEAC0024CEA507065
:10012C00B2F1004F40EB830008BF20F00100704794
:10013C0011F0804F21D113F13872BCBF01F0004097
:10014C00704741F480114FEA5252C2F11802C2F1C9
:10015C00200C10FA0CF320FA02F018BF40F001004A
:10016C004FEAC1234FEAD32303FA0CFC40EA0C00FC
:10017C0023FA02F34FEA4303CCE77FEA625307D139
:10018C0050EA01331EBF4FF0FE4040F44000704770
:10019C0001F0004040F0FE4040F40000704700BF0A
:1001AC0080F0004002E000BF81F0004142001FBF20
:1001BC005FEA410392EA030F7FEA226C7FEA236C29
:1001CC006AD04FEA1262D2EB1363C1BFD21841401E
:1001DC0048404140B8BF5B42192B88BF704710F0B4
:1001EC00004F40F4000020F07F4018BF404211F057
:1001FC00004F41F4000121F07F4118BF494292EABF
:10020C00030F3FD0A2F1010241FA03FC10EB0C00EA
:10021C00C3F1200301FA03F100F0004302D5494277
:10022C0060EB4000B0F5000F13D3B0F1807F06D324
:10023C0040084FEA310102F10102FE2A51D2B1F11C
:10024C00004F40EBC25008BF20F0010040EA030011
:10025C007047490040EB000010F4000FA2F10102BE
:10026C00EDD1B0FA80FCACF1080CB2EB0C0200FA48
:10027C000CF0AABF00EBC25052421843BCBFD04096
:10028C001843704792F0000F81F4000106BF80F410
:10029C0000000132013BB5E74FEA41037FEA226CD3
:1002AC0018BF7FEA236C21D092EA030F04D092F09E
:1002BC00000F08BF0846704790EA010F1CBF0020D2
:1002CC00704712F07F4F04D1400028BF40F000402F
:1002DC00704712F100723CBF00F50000704700F04F
:1002EC00004343F0FE4040F4000070477FEA226276
:1002FC0016BF08467FEA23630146420206BF5FEA47
:10030C00412390EA010F40F4800070474FF0000346
:10031C0004E000BF10F0004348BF40425FEA000C0D
:10032C0008BF704743F0964301464FF000001CE0B5
:10033C0050EA010208BF70474FF000030AE000BF0B
:10034C0050EA010208BF704711F0004302D5404249
:10035C0061EB41015FEA010C02BF844601460020BB
:10036C0043F0B64308BFA3F18053A3F50003BCFAD6
:10037C008CF2083AA3EBC25310DB01FA02FC634483
:10038C0000FA02FCC2F12002BCF1004F20FA02F28A
:10039C0043EB020008BF20F00100704702F120027D
:1003AC0001FA02FCC2F1200250EA4C0021FA02F2DE
:1003BC0043EB020008BF20EADC7070474FF0FF0CE3
:1003CC001CEAD0521EBF1CEAD15392EA0C0F93EADE
:1003DC000C0F6FD01A4480EA010C400218BF5FEA80
:1003EC0041211ED04FF0006343EA501043EA5111F3
:1003FC00A0FB01310CF00040B1F5000F3EBF4900ED
:10040C0041EAD3715B0040EA010062F17F02FD2AF0
:10041C001DD8B3F1004F40EBC25008BF20F00100D3
:10042C00704790F0000F0CF0004C08BF49024CEAEA
:10043C00502040EA51207F3AC2BFD2F1FF0340EA7C
:10044C00C250704740F400004FF00003013A5DDCED
:10045C0012F1190FDCBF00F000407047C2F100022E
:10046C00410021FA02F1C2F1200200FA02FC5FEA1B
:10047C00310040F1000053EA4C0308BF20EADC7065
:10048C00704792F0000F00F0004C02BF400010F4D7
:10049C00000F013AF9D040EA0C0093F0000F01F084
:1004AC00004C02BF490011F4000F013BF9D041EAA6
:1004BC000C018FE70CEAD15392EA0C0F18BF93EAA8
:1004CC000C0F0AD030F0004C18BF31F0004CD8D1D2
:1004DC0080EA010000F00040704790F0000F17BF59
:1004EC0090F0004F084691F0000F91F0004F14D09F
:1004FC0092EA0C0F01D142020FD193EA0C0F03D1F7
:10050C004B0218BF084608D180EA010000F00040F9
:10051C0040F0FE4040F40000704740F0FE4040F4D4
:10052C00400070474FF0FF0C1CEAD0521EBF1CEA73
:10053C00D15392EA0C0F93EA0C0F69D0A2EB030291
:10054C0080EA010C49024FEA402037D04FF080532B
:10055C0043EA111143EA10130CF000408B4238BFF0
:10056C005B0042F17D024FF4000C8B4224BF5B1AFE
:10057C0040EA0C00B3EB510F24BFA3EB510340EA4C
:10058C005C00B3EB910F24BFA3EB910340EA9C00FA
:10059C00B3EBD10F24BFA3EBD10340EADC001B016A
:1005AC0018BF5FEA1C1CE0D1FD2A3FF650AF8B420E
:1005BC0040EBC25008BF20F0010070470CF0004C1B
:1005CC004CEA50207F32C2BFD2F1FF0340EAC25046
:1005DC00704740F400004FF00003013A37E792F007
:1005EC00000F00F0004C02BF400010F4000F013A65
:1005FC00F9D040EA0C0093F0000F01F0004C02BF60
:10060C00490011F4000F013BF9D041EA0C0195E7C8
:10061C000CEAD15392EA0C0F08D142027FF47DAF61
:10062C0093EA0C0F7FF470AF084676E793EA0C0F51
:10063C0004D14B023FF44CAF08466EE730F0004C4F
:10064C0018BF31F0004CCAD130F000427FF45CAFDF
:10065C0031F000437FF43CAF5FE700BF4FF0FF3C4D
:10066C0006E000BF4FF0010C02E000BF4FF0010CA0
:10067C004DF804CD4FEA40024FEA41037FEA226C69
:10068C0018BF7FEA236C11D001B052EA530C18BF8B
:10069C0090EA010F58BFB2EB030088BFC81738BFF0
:1006AC006FEAE17018BF40F0010070477FEA226CDE
:1006BC0002D15FEA402C05D17FEA236CE4D15FEADA
:1006CC00412CE1D05DF8040B704700BF844608460E
:1006DC006146FFE70FB5FFF7C9FF002848BF10F1CF
:1006EC00000F0FBD4DF808EDFFF7F4FF0CBF012014
:1006FC0000205DF808FB00BF4DF808EDFFF7EAFF9E
:10070C0034BF012000205DF808FB00BF4DF808ED58
:10071C00FFF7E0FF94BF012000205DF808FB00BF4D
:10072C004DF808EDFFF7D2FF94BF012000205DF8D3
:10073C0008FB00BF4DF808EDFFF7C8FF34BF0120E0
:10074C0000205DF808FB00BF4FEA4002B2F1FE4FFB
:10075C000FD34FF09E03B3EB12620DD94FEA002377
:10076C0043F0004310F0004F23FA02F018BF404250
:10077C0070474FF00000704712F1610F01D1420237
:10078C0005D110F0004008BF6FF0004070474FF0EB
:10079C00000070477BB972B90029BEBF00204FF032
:1007AC00004106E008BF00281CBF6FF000414FF06D
:1007BC00FF3000F03BB882B0EC462DE9005000F061
:1007CC0005F8DDF804E002B00CBC70472DE9F041EF
:1007DC00069C904606460F461D4600F029F808FB7D
:1007EC0001FCA8FB002300FB05C5B21A2B4467EBE8
:1007FC0003038646C4E90023BDE8F0812DE9F843E4
:10080C00089E1746804689461D4600F067F900FB96
:10081C0005F3A0FB074507FB0137B8EB04043D4487
:10082C0069EB0505C6E90045BDE8F883704700BFD4
:10083C0000292DE9F043C0F2A8800026002BC0F25D
:10084C009E8081468E4690469C46174604460D4631
:10085C00002B3DD18A4259D9B2FA82F33BB1C3F194
:10086C0020029D4020FA02F29F4015439C40390C17
:10087C00B5FBF1F01FFA87FE01FB10550EFB00F3E0
:10088C00220C42EA0545AB4209D9ED1900F1FF32C1
:10089C0080F00B81AB4240F2088102383D44ED1AE6
:1008AC00B5FBF1F301FB13550EFB03FEA4B244EAB6
:1008BC000545AE4508D9ED1903F1FF3280F0F780FC
:1008CC00AE4540F2F480023B43EA0043002203E0D1
:1008DC008B420FD900221346341C18BF01246042EE
:1008EC004FF0000565EB4501584051400019694136
:1008FC00BDE8F083B3FA83F2002A40F089808B4282
:10090C0002D3804500F2E2800123E5E712B901230E
:10091C00B3FBF2F7B7FA87F8B8F1000F3BD1ED1B38
:10092C004FEA174C1FFA87FE0122B5FBFCF00CFBBB
:10093C0010550EFB00F3210C41EA0545AB4207D9DB
:10094C00ED1900F1FF3102D2AB4200F2C380084630
:10095C00ED1AB5FBFCF30CFB13550EFB03FEA4B216
:10096C0044EA0545AE4507D9ED1903F1FF3102D232
:10097C00AE4500F2AD800B4643EA0043ACE7524271
:10098C006FEA060663EB43035BE7404261EB410110
:10099C004FF0FF3652E707FA08F7C8F1200225FAA4
:1009AC0002F34FEA174CB3FBFCF11FFA87FE0CFB6A
:1009BC00113324FA02F205FA08F50EFB01F92A4369
:1009CC00100C40EA0343994504FA08F407D9DB19E3
:1009DC0001F1FF3078D2994576D902393B44C9EB05
:1009EC000303B3FBFCF00CFB10330EFB00F592B2CF
:1009FC0042EA03439D4207D9DB1900F1FF325FD273
:100A0C009D425DD902383B445D1B40EA01428CE7B4
:100A1C00C2F1200328FA03F10CFA02FC41EA0C0C97
:100A2C004FEA1C402EFA03F1B1FBF0F51FFA8CF7DC
:100A3C0000FB151129FA03F30EFA02FE07FB05F968
:100A4C0043EA0E0E4FEA1E4343EA0141894508FA78
:100A5C0002F808D911EB0C0105F1FF3332D28945AC
:100A6C0030D9023D6144C9EB0101B1FBF0F300FB4D
:100A7C00131107FB03F71FFA8EFE4EEA014E774562
:100A8C0008D91EEB0C0E03F1FF3117D2774515D99F
:100A9C00023BE64443EA0543A3FB0889C7EB0E0E71
:100AAC00CE4509D305D0002216E71046F7E61346CB
:100ABC000AE794404445F6D2013BF4E70B46E9E7DC
:100ACC001046A1E71D46CEE7014688E7134603E72B
:100ADC00023B51E702383D443AE700BF2DE9F043B1
:100AEC00002B44D18A42154604464FD9B2FA82F7FC
:100AFC000E464FB1C7F12003B94020FA03F602FAB3
:100B0C0007F50E4300FA07F42F0CB6FBF7F01FFAAB
:100B1C0085FE07FB10620EFB00F1260C46EA024331
:100B2C00994209D95B1900F1FF3280F0EE809942AD
:100B3C0040F2EB8002382B44591AB1FBF7F307FB58
:100B4C0013110EFB03FEA4B244EA01418E4508D9F1
:100B5C00491903F1FF3280F0DA808E4540F2D780DC
:100B6C00023B43EA004000263146BDE8F0838B424D
:100B7C0047D8B3FA83F6002E48D18B4202D3824277
:100B8C0000F2CF8001203146BDE8F08312B9012577
:100B9C00B5FBF2F5B5FA85FCBCF1000F78D1491B19
:100BAC002F0C1FFA85FE0126B1FBF7F007FB101185
:100BBC000EFB00F2230C43EA01418A4207D9491982
:100BCC0000F1FF3302D28A4200F2BC801846891A27
:100BDC00B1FBF7F307FB13110EFB03FEA4B244EABF
:100BEC000142964508D9521903F1FF3180F09180EA
:100BFC00964540F28E80023B43EA00403146BDE808
:100C0C00F083002630463146BDE8F083C6F120045F
:100C1C0022FA04F5B3402B4321FA04F74FEA1348A8
:100C2C00B7FBF8FC1FFA83F908FB1C7720FA04FECB
:100C3C0001FA06F509FB0CF44EEA05054FEA154ED0
:100C4C004EEA0747BC4202FA06F204D9FF180CF12F
:100C5C00FF3168D38C463F1BB7FBF8F408FB1477C5
:100C6C0009FB04F9ADB245EA0741894504D9C91815
:100C7C0004F1FF355DD32C4644EA0C44A4FB02235B
:100C8C00C9EB0101994249D345D0204600266BE7B8
:100C9C00CCF1200405FA0CF521FA04F32A0CB3FB71
:100CAC00F2F61FFA85FE02FB163820FA04F701FA59
:100CBC000CF10EFB06F90F433C0C44EA0843994532
:100CCC0000FA0CF407D95B1906F1FF3138D29945BB
:100CDC0036D9023E2B44C9EB0303B3FBF2F002FB03
:100CEC0010330EFB00F1BFB247EA0343994207D918
:100CFC005B1900F1FF3721D299421FD902382B44DE
:100D0C001746591A40EA06464EE7104614E71346B2
:100D1C0027E70B4670E7B0409042B6D2601E002623
:100D2C0022E7304620E7BC4294D9ACF1020C1F44B8
:100D3C0091E789459FD9023C19449DE73846DFE786
:100D4C000E46C8E70238294441E700BF40F0BF60B7
:100D5C00024B40F40030D860704700BF00ED00E05B
:100D6C00C27810B503780AB3164A03F16043D4680D
:100D7C004278E443C4F30224C4F1040102FA01F101
:100D8C000F22E240847803F5614322400A431201AA
:100D9C00D2B283F8002303780122590903F01F0310
:100DAC0002FA03F3084A42F8213010BD5A09012116
:100DBC0003F01F03994002F12003034A42F8231069
:100DCC0010BD00BF00ED00E000E100E0034A136835
:100DDC0003F0380318431060704700BF0020024036
:100DEC00044B1A6822F010021A601A68104318603B
:100DFC00704700BF00200240CA78F0B502F00F0324
:100E0C00D20644BF8A7813430A78DAB10268002408
:100E1C0001260D88A6403540B5420FD1A7000F26FC
:100E2C00BE4022EA060203FA07F63243CE78282E99
:100E3C0001D1456102E0482E08BF05610134082C40
:100E4C00E6D102600A88FF2A1DD94268002404F109
:100E5C0008050126AE400D883540B5420FD1A700DC
:100E6C000F26BE4022EA060203FA07F63243CE787A
:100E7C00282E08BF4561CE78482E08BF0561013485
:100E8C00082CE4D14260F0BD0161704741617047AC
:100E9C0030B5134C00F44015B5F5401F636882B2B1
:100EAC0006D1656823F0706325F0706565600EE00F
:100EBC00C40255BF440D03242401C0F303454CBFA9
:100ECC00AC4002FA04F423EA040343F0706319B152
:100EDC00400D000182401343014A536030BD00BFF6
:100EEC00000001400D4B1A6842F001021A6059686B
:100EFC000B4A0A405A601A6822F0847222F480323B
:100F0C001A601A6822F480221A605A6822F4FE02CF
:100F1C005A604FF41F029A60704700BF00100240E5
:100F2C000000FFF80C4BB0F5803F1A6822F48032B9
:100F3C001A601A6822F480221A6003D0B0F5802F50
:100F4C0004D070471A6842F4803202E01A6842F406
:100F5C00A0221A60704700BF00100240034A536879
:100F6C0023F47C131943084350607047001002406F
:100F7C00014B1860704700BF60004242034A53683F
:100F8C0023F0030318435060704700BF0010024069
:100F9C00024B586800F00C00704700BF0010024074
:100FAC00034A536823F4E06318435060704700BF52
:100FBC0000100240034A536823F4605343EAC00014
:100FCC00506070470010024010B51D4A536803F082
:100FDC000C03042B03D0082B03D01A4B11E01A4B33
:100FEC000FE053685168C3F38343CC0303F102034E
:100FFC0001D4164904E0516889034CBF11491249C8
:10100C004B4303605368124CC3F30313E15C036856
:10101C00CB4043605168C1F30221615C23FA01F1BA
:10102C0081605168C1F3C221615CCB40C3605268DE
:10103C000849C2F381328A5CB3FBF2F3036110BD41
:10104C000010024000127A000024F40000093D0058
:10105C000400002000000020044B9A6909B11043E1
:10106C0001E022EA00009861704700BF00100240C6
:10107C00044BDA6909B1104301E022EA0000D8619F
:10108C00704700BF00100240044BDA6809B11043EE
:10109C0001E022EA0000D860704700BF0010024057
:1010AC00044B1A6909B1104301E022EA00001861EF
:1010BC00704700BF001002404209012A074B01D1C2
:1010CC001B6803E0022A0CBF1B6A5B6A00F01F005E
:1010DC0023FA00F000F00100704700BF001002403E
:1010EC0007B5002301933120FFF7E6FF019B013385
:1010FC000193019BB3F5A06F01D00028F3D03120F0
:10110C00FFF7DAFF003018BF012003B05DF804FBD5
:10111C0003884A8810B503F441540B8813438A881A
:10112C001343CA8813430A8913434A8913438A8990
:10113C001343CA89134323439BB20380838B23F449
:10114C0000631B041B0C83830B8A038210BD038872
:10115C0019B19BB243F0400303E023F040031B049E
:10116C001B0C0380704781817047808980B2704767
:10117C000389194214BF01200020704708B52A4B7F
:10118C00984207D14FF400600121FFF77DFF4FF427
:10119C00006043E0B0F1804F05D101200146FFF71C
:1011AC007FFF012007E0214B984209D10220012149
:1011BC00FFF776FF02200021BDE80840FFF770BF63
:1011CC001B4B984205D104200121FFF769FF042035
:1011DC00F1E7184B984205D108200121FFF760FF79
:1011EC000820E8E7144B984205D110200121FFF7A5
:1011FC0057FF1020DFE7114B984205D12020012129
:10120C00FFF74EFF2020D6E70D4B98420BD14FF441
:10121C0000500121FFF738FF4FF400500021BDE8CA
:10122C000840FFF731BF08BD002C0140000400400E
:10123C0000080040000C004000100040001400406A
:10124C0000340140038803F08F0303800388CA88AD
:10125C009BB213434A8813439BB203808B888385CC
:10126C000B880385054B984203D003F50063984225
:10127C0001D10B7A0386012383827047002C014035
:10128C00038C70B523F480731B041B0C0384038C38
:10129C008488828B0E8822F073021204120C23F4C1
:1012AC00007316431B040A891B0C43EA02234A8869
:1012BC00A4B243EA0223124A9BB2904203D002F535
:1012CC000062904216D123F400634A8944F6FF75FC
:1012DC009BB243EA02224FF6FF3325408C89134020
:1012EC0045EA04158A88CC8943EA022345EA0414AA
:1012FC009BB2A4B284808683CA888287038470BD23
:10130C00002C0140038C30B523F480531B041B0CC0
:10131C000384038C8488828B0D8822F4E6421204A9
:10132C00120C23F4005342EA05221B040D891B0CFA
:10133C0043EA05334D88A4B243EA05330A4D92B211
:10134C00A8429BB203D005F50065A84205D18D8952
:10135C00C4F30D0444EA8514A4B284808283CA8841
:10136C00A0F84020038430BD002C01404FF6FF73E1
:10137C00838000230380C380438003727047002363
:10138C00038043808380C380038143818381C38135
:10139C007047038819B19BB243F0010303E023F0BB
:1013AC0001039B059B0D03807047B0F8443029B1B5
:1013BC006FEA43436FEA53439BB201E0C3F30E035E
:1013CC00A0F844307047038923F007031B041B0C5F
:1013DC000381704730B50D460446038ACA889BB218
:1013EC0023F440531343038282890989AB8892B258
:1013FC000B43698922F4B0520B4322F00C021343C5
:10140C009BB28381838AAA899BB223F4407387B0F1
:10141C001343838201A8FFF7D7FD039B049A0E495F
:10142C008C4218BF1A46192353432A689200B3FB07
:10143C00F2F26423B2FBF3F00001010903FB112269
:10144C0012013232B2FBF3F303F00F0303439BB2EE
:10145C00238107B030BD00BF00380140838919B12A
:10146C009BB243F4005303E023F400531B041B0C06
:10147C008381704710B5C1F34214012301F01F01A1
:10148C00012C03FA01F301D10C3003E0022C0CBF48
:10149C001030143012B10268134302E0026822EAE1
:1014AC000303036010BD00002DE9F3410C20012162
:1014BC00FFF7D2FD012002AC01460227DFF848807D
:1014CC00FFF7CAFD0F4E24F8047D10238DF807306A
:1014DC004046032321468DF806304FF48465FFF710
:1014EC008BFC30462146ADF80450FFF785FC404696
:1014FC003946FFF7C9FC30462946FFF7C5FC02B058
:10150C00BDE8F081000C01400008014008B500F076
:10151C00F7FD00F0E7FF3049304800F037FF4FF49B
:10152C007A7000F0DDFC2E492C4800F02FFFFFF7FD
:10153C00BBFF0020014600F083F80120002100F0E1
:10154C007FF80220002100F07BF800F0DDF925483F
:10155C0000F08AFA4028FAD10020012100F070F83E
:10156C000120014600F06CF80220012100F068F81F
:10157C0000F00EFD1C49194800F008FF0421002260
:10158C004FF0804000F080FB03210022174800F050
:10159C007BFB032140F2E7324FF0804000F074FBFC
:1015AC00042140F2E732114800F06EFB4FF4FA6070
:1015BC0000F096FC042140F2E7324FF0804000F03E
:1015CC0063FB032140F2E732084800F05DFB322058
:1015DC0000F086FCADE700BF282500089D1D000823
:1015EC0041250008C00200205B25000800080040CF
:1015FC0013B508200121FFF72FFD03230E4C8DF8A6
:10160C00063010238DF8073002A94FF4604321F8FF
:10161C00043D2046FFF7F0FB084B4FF400529A8034
:10162C004FF480429A814FF400421C609C601C6114
:10163C009A8202B010BD00BF000C01407000002067
:10164C00054AC300134452F8300011B19988FFF7D2
:10165C001BBC9988FFF71ABC7000002010B504461B
:10166C000A480221FFF784FD0028F9D007482146DB
:10167C00FFF779FD05480121FFF77AFD0028F9D025
:10168C000248FFF772FDC0B210BD00BF0030014030
:10169C0070B506460C460E484FF480511546FFF7C0
:1016AC00F5FB0C481021FFF7F1FB3046FFF7D6FF96
:1016BC0006462544AC4204D014F8010BFFF7CEFFCC
:1016CC00F8E704481021FFF7DFFB304670BD00BF80
:1016DC00000C01400008014070B505460B4C0E464D
:1016EC000B484FF48051FFF7D1FB10212046FFF738
:1016FC00CDFB2846FFF7B2FF05463046FFF7AEFF9D
:10170C0020461021FFF7C0FB284670BD00080140A1
:10171C00000C0140F8B505460E460F484FF48051B9
:10172C001446FFF7B3FB0D481021FFF7AFFB28461B
:10173C00FFF794FF0746013C751E3444A54205D0C3
:10174C00FF20FFF78BFF05F8010FF7E70348102187
:10175C00FFF79AFB3846F8BD000C01400008014029
:10176C0038B50B4C0B484FF48051FFF78FFB102111
:10177C002046FFF78BFB0720FFF770FFFF20FFF7DA
:10178C006DFF054610212046FFF77EFB284638BD2D
:10179C0000080140000C014030B5154C207930BBDD
:1017AC00144B154A196804331B6810685A18024404
:1017BC0002EB116202EB136202EB1062C1F307251C
:1017CC002A44C1F307410A44C3F307210A44C3F373
:1017DC000743134403EB102303EB104010F0FF00FE
:1017EC00064B08BF01201870054B2071187130BDD5
:1017FC0019000020E8F7FF1FF0F7FF1F280000205A
:10180C001400002010B54FF4827286B0104C0023E7
:10181C00ADF806204FF40072ADF80430ADF8083086
:10182C00ADF80A30ADF80C30ADF80E20ADF8123032
:10183C0028220723204601A9ADF81020ADF814305A
:10184C00FFF766FC20460121FFF781FC06B010BDB6
:10185C00003001402DE9F3414FF48050012102ACDE
:10186C00FFF7FAFB244F4FF480581D200121FFF79E
:10187C00F3FB224D24F8048D032310263846214611
:10188C008DF806308DF80760FFF7B6FA284621462A
:10189C00ADF80460FFF7B0FA48238DF807303846EE
:1018AC004FF400632146ADF80430FFF7A5FA182376
:1018BC008DF807302846A0232146ADF80430FFF7F9
:1018CC009BFA0423284621468DF807304023ADF8B7
:1018DC000430FFF791FAFFF795FF38464146FFF7C2
:1018EC00D5FA28463146FFF7CFFA0549054800F0EE
:1018FC004DFD02B0BDE8F081000C01400008014034
:10190C00732500089D1D000810B5164C4FF480512E
:10191C002046FFF7BBFA052213492A20FFF7B8FE31
:10192C0001212120FFF7D8FE01212220FFF7D4FE50
:10193C0028212520FFF7D0FE20213120FFF7CCFEF7
:10194C000F212620FFF7C8FE0F212020FFF7C4FE31
:10195C0020464FF48051FFF797FABDE81040012064
:10196C0000F0D4BA000C01401400002010B5194C42
:10197C004FF480512046FFF789FA17490522302091
:10198C00FFF786FE052215492A20FFF781FE01216B
:10199C002120FFF7A1FE01212220FFF79DFE05214A
:1019AC002420FFF799FE28212520FFF795FE0F2113
:1019BC002620FFF791FE0E212020FFF78DFE2046FA
:1019CC004FF48051FFF760FABDE810400B2000F097
:1019DC009DBA00BF000C014019000020140000202B
:1019EC0010B5044600212720FFF776FEFF21E120E9
:1019FC00FFF772FE1B484FF48051FFF747FA214660
:101A0C002022A020FFF744FE16484FF48051FFF728
:101A1C003BFA0023134A9268120504D5B3F5805F94
:101A2C0004D00133F6E7B3F5805F09D100212720FC
:101A3C00FFF752FEFF21E120FFF74EFE002010BD04
:101A4C00FFF78EFE044627202146FFF745FEFF21B7
:101A5C00E120FFF741FEE30654BF04F02000102004
:101A6C0010BD00BF000C014038B5054620222946A8
:101A7C006120FFF74FFEFF21E220FFF72DFE1C48EF
:101A8C004FF48051FFF700FA0023194882681205C1
:101A9C0004D5B3F5805F04D00133F6E7B3F5805F6E
:101AAC000AD1294620226120FFF734FEFF21E220D3
:101ABC00FFF712FE002038BD4FF48051FFF7E6F916
:101ACC00FFF74EFE04462720214604F04004FFF7A2
:101ADC0003FE04F0FF004CB1294620226120FFF7E1
:101AEC0019FEE220FF21FFF7F7FD402038BD00BFB3
:101AFC00000C0140F0B51C2089B00121FFF7ACFAB5
:101B0C0001200146FFF7A8FA4FF400600121FFF70E
:101B1C00A3FA07200121FFF7ABFA182308AC8DF8C4
:101B2C000330534E0C2324F8203D03253046214628
:101B3C008DF80250FFF760F9ADF800504D4D21467D
:101B4C002846FFF759F94FF4407328462146ADF863
:101B5C000030FFF751F930460621FFF797F940F2B4
:101B6C0003312846FFF792F94FF08040A6F58236F4
:101B7C00FFF704FB4FF08040FFF725FC3046A5F53E
:101B8C008235FFF7FBFA3046FFF71DFC2846FFF7BE
:101B9C00F5FA2846FFF717FC01A8FFF7E7FB04A8A6
:101BAC00FFF7EDFB40F2E733ADF80830324B334A28
:101BBC001B680027B3FBF2F301A9013B4FF08040F7
:101BCC00ADF80430ADF80A70ADF806708DF80C70F5
:101BDC00FFF738FB304601A9FFF734FB284601A973
:101BEC00FFF730FB60230124ADF8103004A9082363
:101BFC004FF08040ADF81A30ADF81240ADF81670C9
:101C0C00FFF73EFB04A94FF08040FFF77BFB30460B
:101C1C0004A9FFF735FB304604A9FFF773FB2846F0
:101C2C0004A9FFF72DFB284604A9FFF76BFB2146FF
:101C3C004FF08040FFF7ADFB21464FF08040FFF79F
:101C4C00B4FB30462146FFF7A4FB30462146FFF794
:101C5C00ACFB28462146FFF79CFB28462146FFF7A4
:101C6C00A4FB0749074800F091FB09B0F0BD00BF89
:101C7C0000080140000C01402000002040420F00F1
:101C8C00BD2500089D1D00087FB50E46044668461C
:101C9C001546FFF774FB711E03290BD8DFE801F022
:101CAC0002040608A58605E0258703E0A58701E068
:101CBC00A4F8405004B070BD30B5042087B00121A9
:101CCC00FFF7CAF9274C4FF480400121FFF7C4F904
:101CDC004FF48063ADF800302046042369468DF83C
:101CEC000330FFF789F84FF40073ADF8003003238D
:101CFC001D4D8DF802302046182369468DF80330AF
:101D0C00FFF77AF84FF4E133002402A90293284636
:101D1C000C23ADF81230ADF80C40ADF80E40ADF818
:101D2C001040ADF81440FFF755FB25238DF8054006
:101D3C008DF8064001A801248DF804308DF8074079
:101D4C00FFF70EF82246284640F22551FFF792FB8A
:101D5C0028462146FFF782FB0449054800F016FB94
:101D6C0007B030BD0008014000380140D5250008FF
:101D7C009D1D00080844814207D0044B1A881206A6
:101D8C00FBD511F8012B9A80F5E77047003801401C
:101D9C0007B502A941F8040D0120FFF7EBFF9DF8F0
:101DAC00040003B05DF804FB7047704710B5FFF7F3
:101DBC0099F84FF48030FFF7B5F8FFF791F9012847
:101DCC000446FAD11020FFF70BF80220FEF7FEFFB5
:101DDC000020FFF7EFF84FF48060FFF7E1F84FF4C5
:101DEC0080304FF4E011FFF7B9F82046FFF7C0F848
:101DFC003920FFF761F90028FAD00220FFF7BEF86E
:101E0C00FFF7C6F80828FBD101200146BDE81040B9
:101E1C00FFF722B910B500220C2151430D4C0132B1
:101E2C0000236018042A4360836043706354F3D129
:101E3C00094A4FF47A711268F020B2FBF1F20749AB
:101E4C00013A4A60064A82F823008B6007230B6034
:101E5C0010BD00BF3C0000202000002010E000E07E
:101E6C0000ED00E010B5194A136833B11368013B5B
:101E7C00136013B9164B01221A7000220C21514326
:101E8C00144C6318586850B158680138586030B910
:101E9C0001205870615C814204BF9968596001321D
:101EAC00042AEBD10C4B1A6801321A6019686FF0D6
:101EBC000042914204BF00221A60084A1378013391
:101ECC00DBB2092B88BF0023137010BD3400002037
:101EDC00380000203C0000202C00002030000020A6
:101EEC0078B1012808BF0220012383F31088054B29
:101EFC0000221860044B1A7082F310881A78012A99
:101F0C00FCD17047340000203800002010B50B4B7A
:101F1C000B491B680B4AB3FBF1F3546891685843A7
:101F2C000023084A92688A42FBD00B4428BF1B1935
:101F3C009B1A834201D21146F3E710BD200000200A
:101F4C0040420F0010E000E0FFF78CBF0021202280
:101F5C0000F0DCBA38B50A4904460A4800F016FA13
:101F6C00651E1F3415F8012F0648074900F00EFABC
:101F7C00A542F7D103480549BDE8384000F006BA40
:101F8C00EF2500089D1D00080626000812260008F3
:101F9C0070B5534B8CB01B78052B34D0092B00F04B
:101FAC008880032B40F09A804E4C2046FFF7CEFFE2
:101FBC00042323704C4B1B7863700223A3704B4B90
:101FCC0019685A68C1F3072008331B68E170207147
:101FDC00C1F30740090EA171C2F30721E27121720E
:101FEC00C2F30741120EA272C3F30722E3722273EB
:101FFC00C3F307421B0E607161726273A373FFF728
:10200C00B5FC204650E0374C2046FFF79FFF40229E
:10201C00E270224606232370334B0DF105011B7829
:10202C0063700023A3703248033130F81340C4F3BB
:10203C00072401F8044C30F8134030F81300013336
:10204C00C4F3031400F00F000E2B01F8034C01F83D
:10205C00020CE8D1002301A901EB430611F813503F
:10206C007178D018013341EA0511152B1D4C017103
:10207C00F1D1FFF77BFC2046FFF7B2FC2046202372
:10208C00E37004231B4A04301A44526904331116BA
:10209C00017011144170142B4FEA22218170C2700F
:1020AC00F0D1FFF763FC0F480CB0BDE87040FFF7B0
:1020BC0097BC0C4C1049114800F068F92046FFF70A
:1020CC0045FF0A232370FFF751FC2046FFF788FCDD
:1020DC0020460CB0BDE87040FFF73CBF0CB070BDA3
:1020EC00C0020020E004002028000020E8F7FF1FB9
:1020FC003C050020080500201C2600089D1D00083A
:10210C0038B51D4D2C78ACBBFFF750FEFFF782FEA7
:10211C00FFF76EFA20462146FFF792FA012021467E
:10212C00FFF78EFA21460220FFF78AFA4FF4FA7075
:10213C00FFF7D6FE01212046FFF782FA4FF4FA7022
:10214C00FFF7CEFE01200146FFF77AFA4FF4FA7042
:10215C00FFF7C6FE01210220FFF772FA4FF4FA7066
:10216C00FFF7BEFEFFF7A8FD0448054900F00EF985
:10217C0001232B7038BD00BF6C0000209D1D000892
:10218C00312600080123092804DD0A22013390FBC3
:10219C00F2F0F8E7184670472DE9F84F0D468246E5
:1021AC00084693461C46FFF7EDFF002D064604D16A
:1021BC003020D0470120BDE8F88F05DABBF10A0FBB
:1021CC0002D12D206D42D047A6420ADAA41B264626
:1021DC00002E03DD3020D047013EF9E724EAE474F9
:1021EC0000E00024012600273B4628460021324609
:1021FC00FEF7D0FA50EA0103D8464FEAEB7907D044
:10220C0006FB09F30BFB0733A6FB0B671F44EBE73D
:10221C00304639464B464246FEF7BCFA06460F4658
:10222C0056EA07030ED032463B4628460021FEF7FD
:10223C00B1FA42464B46FEF7ADFA044B0134985CBA
:10224C00D047E5E72046BDE8F88F00BF4C260008D4
:10225C002DE9F04707460E46154600243078002835
:10226C0000F08E80252840F08780474B4FF0060900
:10227C0019680136324612F8013BC81840788007BD
:10228C000AD12E2BF5D17378C8184078460748BF71
:10229C00A3F130091646ECE7662B16461BD003D883
:1022AC00582B0DD0642B04E0732B55D0782B07D012
:1022BC00692BD3D105F10408384629680A2204E0B9
:1022CC003846296805F1040810220023FFF764FF43
:1022DC0045460444C2E7073525F00703D3E900015E
:1022EC0003F10805FDF70CFF00218046FEF704FA08
:1022FC0020B12D20B84708F1004801344046FEF7C4
:10230C0023FA8246002351460A223846FFF744FF3F
:10231C0004442E20B8475046FDF7FCFF01464046CA
:10232C00FDF742FF0134804601230A204B4503DAB6
:10233C000A2250430133F9E7FDF7ECFF0146404612
:10234C00FEF73CF8FEF700FA0A2201464B463846E7
:10235C00FFF722FF044481E7D5F8008005F104095A
:10236C004546C8EB04032B4415F8010B08B1B847DC
:10237C00F7E74D461C4671E70136B84701346DE767
:10238C002046BDE8F08700BF240000200EB403B542
:10239C0003AA52F8041B0192FFF75AFF02B05DF832
:1023AC0004EB03B070470000002103E00A4B5B58BC
:1023BC004350043109480A4B42189A42F6D3094A51
:1023CC0002E0002342F8043B074B9A42F9D300F099
:1023DC000FF8FFF79BF870476827000800000020F3
:1023EC00280000202800002058050020FEE70000EF
:1023FC00384B82B01A6842F001021A605968364AAA
:10240C000A405A601A6822F0847222F480321A60F0
:10241C001A6822F480221A605A6822F4FE025A606A
:10242C004FF41F029A600022009201921A6842F443
:10243C0080321A601A6802F400320192009A01325A
:10244C000092019A1AB9009AB2F5A06FF2D11A68EB
:10245C0012F4003218BF01220192019A012A05D010
:10246C001E4B4FF000629A6002B070471C4A116814
:10247C0041F010011160116821F003011160116825
:10248C0041F0020111605A685A605A685A605A68E1
:10249C0042F480625A605A6822F47C125A605A687C
:1024AC0042F4E8125A601A6842F080721A60196895
:1024BC00084A8901FBD5516821F00301516051682C
:1024CC0041F0020151605A6802F00C02082AFAD15C
:1024DC00C6E700BF001002400000FFF800ED00E06E
:1024EC000020024008B54FF44070FEF72FFC01218C
:1024FC000548FEF7CDFCFFF7FDFAFFF7ABF9FFF748
:10250C004BF9002008BD00BF000230000346024416
:10251C00934202D003F8011BFAE770474D41494E34
:10252C003A20696E6974207375636365737366759D
:10253C006C6C790A004D41494E3A205265616479C0
:10254C0020666F72207061636B6574200D0A004DFC
:10255C0041494E3A20526563656976656420706125
:10256C00636B65740D0A004E52463A20696E6974AD
:10257C00207375636365737366756C6C792E0A00D2
:10258C004E52463A20636F6E6E656374696F6E20AF
:10259C00737563636573730A004E52463A20636F1A
:1025AC006E6E656374696F6E206661696C65640A32
:1025BC000054494D3A20696E6974207375636365E4
:1025CC00737366756C6C790A0055534152543A20FA
:1025DC00696E6974207375636365737366756C6C6F
:1025EC00790A0053424E313A2053656E642042758D
:1025FC0066666572202D205B200053424E313A20D6
:10260C0025303258200053424E313A205D0D0A00DD
:10261C0053424E313A20202053656C662043686546
:10262C00636B0D0A0053595354454D3A20696E693A
:10263C0074207375636365737366756C6C790A00CB
:10264C0030313233343536373839414243444546DC
:10265C000020202020202020202028282828282066
:10266C00202020202020202020202020202020205E
:10267C0020881010101010101010101010101010C6
:10268C0010040404040404040404041010101010B6
:10269C001010414141414141010101010101010180
:1026AC0001010101010101010101010110101010D2
:1026BC001010424242424242020202020202020252
:1026CC0002020202020202020202020210101010A6
:1026DC0020000000000000000000000000000000CE
:1026EC0000000000000000000000000000000000DE
:1026FC0000000000000000000000000000000000CE
:10270C0000000000000000000000000000000000BD
:10271C0000000000000000000000000000000000AD
:10272C00000000000000000000000000000000009D
:10273C00000000000000000000000000000000008D
:10274C00000000000000000000000000000000007D
:04275C000000000079
:08276000DCE0FF7F0100000036
:102768000204060800000000010203040102030439
:102778000607080934431010003443101000000005
:0827880000A24A045C260008CF
:040000050800010CE2
:00000001FF
